S0100000537072696E745F392E73726563FC
S11300000C9424010C9443010C94E9010C94ED0329
S11300100C9441010C943C030C9441010C94410157
S11300200C9441010C9441010C9441010C94410144
S11300300C9441010C9441010C9493020C944101E1
S11300400C9441010C9441010C9452040C94410110
S11300500C9441010C942E040C9441010C94410124
S11300600C9441010C944101000000000000005F69
S113007000000007000700147F147F14242A7F2A3D
S11300801223130864623649552250000503000008
S1130090001C2241000041221C0014083E081408E0
S11300A0083E0808005030000008080808080060EE
S11300B060000020100804023E5149453E00427F82
S11300C0400042615149462141454B311814127F89
S11300D01027454545393C4A494930017109050312
S11300E03649494936064949291E0036360000007A
S11300F0563600000814224100141414141400414C
S11301002214080201510906324979413E7E111137
S1130110117E7F494949363E414141227F41412276
S11301201C7F494949417F090909013E4149497AEE
S11301307F0808087F00417F41002040413F017F44
S1130140081422417F404040407F020C027F7F041C
S113015008107F3E4141413E7F090909063E415155
S1130160215E7F09192946464949493101017F0128
S1130170013F4040403F1F2040201F3F4038403F48
S11301806314081463070870080761514945430064
S11301907F41410002040810200041417F00040215
S11301A00102044040404040000102040020545435
S11301B054787F48444438384444442038444448BC
S11301C07F3854545418087E0901020C5252523E8E
S11301D07F0804047800447D40002040443D007FB3
S11301E01028440000417F40007C041804787C08F7
S11301F004047838444444387C141414080814144F
S1130200187C7C080404084854545420043F444097
S1130210203C4040207C1C2040201C3C4030403C82
S113022044281028440C5050503C4464544C44001E
S11302300836410000007F00000041360800100825
S1130240081008000000000011241FBECFEFD8E002
S1130250DEBFCDBF12E0A0E0B1E0EAE6FCE202C0FE
S113026005900D92AE33B107D9F724E0AEE3B2E0C6
S113027001C01D92AA38B207E1F70E94FD0D0C944B
S113028033160C9400001F920F9200905F000F929F
S113029011242F933F934F935F936F937F938F9387
S11302A09F93AF93BF93EF93FF93CF93DF93CDB718
S11302B0DEB780915402882321F08091540281306A
S11302C031F4809100018F5F809300016DC08091B3
S11302D05402823089F480913E02865F80933E020C
S11302E080913E02853608F084E680933E02809138
S11302F03E020E94F10E58C080915402833031F4C2
S1130300809114018F5F809314014EC08091540238
S1130310843089F480918802813069F480911301DA
S11303208F5F8093130180911301893008F088E076
S11303308093130139C0809154028430B9F48091C0
S11303408702813099F4809186028F5F80938602C0
S113035080911301823030F0809113018150809399
S1130360130122C081E0809313011EC080915402C6
S1130370853031F4809115018F5F8093150114C08D
S113038080915402863031F4809116018F5F8093FE
S113039016010AC080915402873031F4809117010C
S11303A08F5F8093170100C00000DF91CF91FF9110
S11303B0EF91BF91AF919F918F917F916F915F91D9
S11303C04F913F912F910F9000925F000F901F90DB
S11303D018951F920F9200905F000F9211242F9393
S11303E03F934F935F936F937F938F939F93AF93B9
S11303F0BF93EF93FF93CF93DF93CDB7DEB7809195
S11304005402882321F080915402813031F4809188
S1130410000181508093000171C0809154028230A8
S1130420A9F480913E02882351F080913E028A50C3
S113043080933E0280913E020E94F10E5FC01092B2
S11304403E0280913E020E94F10E58C080915402F7
S1130450833031F4809114018150809314014EC093
S113046080915402843091F480918802813071F437
S113047080911301823030F0809113018150809378
S113048013013CC081E08093130138C08091540271
S11304908430B1F480918702813091F48091860296
S11304A0815080938602809113018F5F80931301A2
S11304B080911301893008F088E0809313011EC0F5
S11304C080915402853031F48091150181508093DC
S11304D0150114C080915402863031F480911601C4
S11304E08150809316010AC080915402873031F400
S11304F08091170181508093170100C00000DF91A3
S1130500CF91FF91EF91BF91AF919F918F917F9187
S11305106F915F914F913F912F910F9000925F00E7
S11305200F901F9018951F920F9200905F000F92EA
S113053011242F933F934F935F936F937F938F93E4
S11305409F93AF93BF93EF93FF93CF93DF93CDB775
S1130550DEB78091400290914102A0914202B09195
S113056043020196A11DB11D809340029093410264
S1130570A0934202B093430280910001882F90E03F
S113058082959295907F9827807F98279C01990F58
S1130590440B550B80E69AEEA0E0B0E0BC01CD011F
S11305A00E94D415DA01C90190935102809350023C
S11305B08091400290914102A0914202B091430285
S11305C02091500230915102990140E050E0BC0169
S11305D0CD010E94B215DC01CB01892B8A2B8B2B18
S11305E021F4809100010E94B40E80914002909108
S11305F04102A0914202B091430226E930E040E07A
S113060050E0BC01CD010E94B215DC01CB01892B65
S11306108A2B8B2B19F481E0809352028091400243
S113062090914102A0914202B091430228EC30E043
S113063040E050E0BC01CD010E94B215DC01CB01C9
S1130640892B8A2B8B2B19F481E0809353020000B1
S1130650DF91CF91FF91EF91BF91AF919F918F91D6
S11306607F916F915F914F913F912F910F900092E5
S11306705F000F901F9018951F920F9200905F00DB
S11306800F9211242F933F934F935F936F937F9314
S11306908F939F93AF93BF93EF93FF93CF93DF9386
S11306A0CDB7DEB789E290E0FC018081882F90E02D
S11306B080749927892BA9F480915402882331F4FA
S11306C081E0809387021092880272C08091540264
S11306D0813009F06DC01092870281E08093880216
S11306E067C080913F02882309F589E290E0FC010C
S11306F08081882F90E080719927892B09F058C058
S11307008091400290914102A0914202B091430233
S11307108093480290934902A0934A02B0934B02FB
S113072080913F028F5F80933F0242C089E290E054
S1130730FC018081882F90E080719927892BC1F575
S11307408091400290914102A0914202B0914302F3
S113075080934C0290934D02A0934E02B0934F02AB
S113076020914C0230914D0240914E0250914F0223
S11307708091480290914902A0914A02B0914B02A3
S1130780281B390B4A0B5B0B80E69AEEA0E0B0E025
S1130790BC01CD010E94B215DA01C9018093440263
S11307A090934502A0934602B093470210923F02F1
S11307B00000DF91CF91FF91EF91BF91AF919F9195
S11307C08F917F916F915F914F913F912F910F90F6
S11307D000925F000F901F9018951F920F92009047
S11307E05F000F9211248F939F93EF93FF93CF9306
S11307F0DF93CDB7DEB783E290E0FC018081882FE0
S113080090E080749927892B29F480918A028F5F64
S113081080938A0280918A02893078F010928A0249
S113082080918A028093540280918A028093870285
S113083080918A028093880204C080918A02809306
S113084054020000DF91CF91FF91EF919F918F911E
S11308500F9000925F000F901F9018951F920F92B7
S113086000905F000F9211248F939F93EF93FF9357
S1130870CF93DF93CDB7DEB788E790E0FC018081AA
S1130880918190938402809383020000DF91CF9141
S1130890FF91EF919F918F910F9000925F000F90C5
S11308A01F9018951F920F9200905F000F921124D1
S11308B02F933F934F935F936F937F938F939F9364
S11308C0AF93BF93EF93FF93CF93DF93CDB7DEB78F
S11308D086EC90E0FC018081809385028091850202
S11308E0682F82E291E00E94920480938B028091AF
S11308F08B0262E271E00E94AD060000DF91CF91AD
S1130900FF91EF91BF91AF919F918F917F916F91E3
S11309105F914F913F912F910F9000925F000F9044
S11309201F901895CF93DF93CDB7DEB76A970FB6B4
S1130930F894DEBF0FBECDBF998F888F6A8F8BE08E
S1130940EAE2F1E0DE011D9601900D928A95E1F74D
S113095080918C0280938D0290918D028091890206
S1130960981779F48A8D8B3329F480911801809338
S11309708C0204C08091210180938C0210928E021B
S1130980E1C190918D0280911801981789F58091A9
S1130990210180938C021A82198215C09E01235F63
S11309A03F4F89819A81820F931FFC0190818A8D28
S11309B0981721F48091190180938C0289819A817E
S11309C001969A83898389819A810A973CF380915D
S11309D08E02882F90E0288D398D820F931F2A8DE7
S11309E0FC01208380918E028F5F80938E02AAC1C6
S11309F090918D02809119019817C9F58A8D8837D5
S1130A0029F480911C0180938C0204C080912101FF
S1130A1080938C021C821B8215C09E01235F3F4F72
S1130A208B819C81820F931FFC0190818A8D981782
S1130A3021F480911A0180938C028B819C81019610
S1130A409C838B838B819C810A973CF380918E02DB
S1130A50882F90E0288D398D820F931F2A8DFC01F9
S1130A60208380918E028F5F80938E026BC1909160
S1130A708D0280911A019817C9F58A8D883729F457
S1130A8080911C0180938C0204C080912101809389
S1130A908C021E821D8215C09E01235F3F4F8D81F3
S1130AA09E81820F931FFC0190818A8D981721F4F7
S1130AB080911B0180938C028D819E8101969E837F
S1130AC08D838D819E810A973CF380918E02882FBD
S1130AD090E0288D398D820F931F2A8DFC0120838D
S1130AE080918E028F5F80938E022CC190918D0233
S1130AF080911B019817E9F48A8D883729F4809135
S1130B001C0180938C0204C08091210180938C028B
S1130B1080918E02882F90E0288D398D820F931F4B
S1130B202A8DFC01208380918E028F5F80938E0238
S1130B3009C190918D0280911C01981789F58091CB
S1130B40210180938C0218861F8215C09E01235FA9
S1130B503F4F8F819885820F931FFC0190818A8D6E
S1130B60981721F480911D0180938C028F819885C0
S1130B70019698878F838F8198850A973CF380919B
S1130B808E02882F90E0288D398D820F931F2A8D35
S1130B90FC01208380918E028F5F80938E02D2C0ED
S1130BA090918D0280911D01981709F044C08A8D9F
S1130BB08A3329F48091200180938C0204C08091AF
S1130BC0210180938C0280918E02882F90E0288DE1
S1130BD0398D820F931F20E2FC0120831A86198627
S1130BE020C09E01235F3F4F89859A85820F931F02
S1130BF0FC0190818A8D981779F480911E0180936D
S1130C008C0280918E02882F90E0288D398D820F7E
S1130C10931F2A8DFC01208389859A8501969A87E2
S1130C20898789859A850A97E4F280918E028F5F7D
S1130C3080938E0287C090918D0280911E01981737
S1130C4009F044C08A8D8A3329F48091200180936D
S1130C508C0204C08091210180938C0280918E02C9
S1130C60882F90E0288D398D820F931F20E2FC019C
S1130C7020831C861B8620C09E01235F3F4F8B85EB
S1130C809C85820F931FFC0190818A8D981779F4BB
S1130C9080911F0180938C0280918E02882F90E0B6
S1130CA0288D398D820F931F2A8DFC0120838B851B
S1130CB09C8501969C878B878B859C850A97E4F29B
S1130CC080918E028F5F80938E023CC090918D0242
S1130CD080911F01981769F48A8D8A3329F48091D1
S1130CE0200180938C022EC08091210180938C027C
S1130CF029C090918D0280912001981779F48A8DF2
S1130D008B3329F48091180180938C0204C0809164
S1130D10210180938C0210928E0214C090918D0256
S1130D2080912101981771F48A8D8B3329F4809175
S1130D30180180938C0204C08091210180938C025D
S1130D4010928E0280918C026A960FB6F894DEBFE0
S1130D500FBECDBFDF91CF910895CF93DF93CDB771
S1130D60DEB727970FB6F894DEBF0FBECDBF8D83D5
S1130D707F836E83809121019D81981711F51A82DA
S1130D8019821AC089819A818F5F9E4FFC0120814C
S1130D9089819A81875F9E4FFC01208389819A8192
S1130DA02E813F81820F931F20E2FC0120838981E1
S1130DB09A8101969A83898389819A81079714F38A
S1130DC028C0809120019D81981719F51C821B82EF
S1130DD01CC08B819C812E813F81820F931FFC015B
S1130DE020818B819C81875F9E4FFC0120838B81B6
S1130DF09C812E813F81820F931F20E2FC0120837E
S1130E008B819C8101969C838B838B819C8107972A
S1130E1004F3000027960FB6F894DEBF0FBECDBFD3
S1130E20DF91CF910895CF93DF9300D000D0CDB759
S1130E30DEB780915202882309F4C4C080918302F2
S1130E4090918402CC01A0E0B0E0BC01CD010E94ED
S1130E508214DC01CB0120E030E040E854E4BC0122
S1130E60CD010E94E113DC01CB0120E030E040EA37
S1130E7050E4BC01CD010E943915DC01CB0189830A
S1130E809A83AB83BC838CE790E0FC01808180343F
S1130E9009F067C020E030E040E050E469817A81E5
S1130EA08B819C810E94341588235CF120E030E022
S1130EB040E650E469817A818B819C810E94DC1335
S1130EC08823FCF420E030E040E251E469817A8137
S1130ED08B819C810E943915DC01CB0120E030E03C
S1130EE040E251E4BC01CD010E947013DC01CB014E
S1130EF080937D0290937E02A0937F02B093800240
S1130F0025C020E030E040E050E469817A818B81A3
S1130F109C810E94DC1388236CF480E090E0A0EFB5
S1130F20B1E480937D0290937E02A0937F02B093FC
S1130F3080020CC080E090E0A4E3B2E480937D02E0
S1130F4090937E02A0937F02B09380028CE790E09E
S1130F502CE730E0F901308121E02327FC012083D4
S1130F602FC08CE790E0FC018081813449F58091A9
S1130F70830290918402CC01A0E0B0E0BC01CD01D9
S1130F800E948214DC01CB012DE637EE4BEF5DE3CA
S1130F90BC01CD010E943915DC01CB01BC01CD019E
S1130FA00E945314DC01CB01809382028CE790E011
S1130FB02CE730E0F901308121E02327FC01208374
S1130FC01092520200000F900F900F900F90DF913B
S1130FD0CF910895CF92DF92EF92FF92CF93DF9358
S1130FE01F92CDB7DEB780915302882309F4D8C588
S1130FF0198280917D0290917E02A0917F02B0912E
S11310008002BC01CD010E945314DC01CB0180930A
S1131010810280917D0290917E02A0917F02B09125
S1131020800220E030E040E251E4BC01CD010E94A6
S11310303915DC01CB016C017D0180918102882F7F
S113104090E0880F991F9C01220F331F220F331F3A
S1131050820F931F092E000CAA0BBB0BBC01CD0100
S11310600E948414DC01CB019C01AD01C701B601CF
S11310700E946F13DC01CB01BC01CD010E9453140B
S1131080DC01CB01898380910001882F90E04AE044
S113109050E065E572E00E94F3158091440290915E
S11310A04502A0914602B09147024AE050E068E54B
S11310B072E00E94F31580918202882F90E04AE04A
S11310C050E06CE572E00E94F31580918102882F54
S11310D090E04AE050E060E672E00E94F3158981F6
S11310E0882F90E04AE050E064E672E00E94F31535
S11310F080913E02882F90E04AE050E067E672E07B
S11311000E94F31580911301882F90E04AE050E08B
S11311106BE672E00E94F31580911401882F90E031
S11311204AE050E06EE672E00E94F3158091860278
S1131130882F90E04AE050E061E772E00E94F315E6
S113114080911501882F90E04AE050E064E772E056
S11311500E94F31580911601882F90E04AE050E038
S113116067E772E00E94F31580911701882F90E0E1
S11311704AE050E06AE772E00E94F315809154025D
S1131180882381F580918702882361F58091880204
S1131190882341F50E94E41160E080E00E943A1344
S11311A061E085E391E00E94171368E080E00E940B
S11311B03A1361E083E491E00E94171361E180E057
S11311C00E943A1361E080E591E00E9417136AE1FE
S11311D080E00E943A1361E08BE591E00E941713CE
S11311E00E944D1380915402813081F580918802D0
S11311F0882361F580918702882341F50E94E411D8
S113120060E080E00E943A1361E085E391E00E948F
S1131210171368E080E00E943A1361E083E491E0F0
S11312200E94171361E180E00E943A1361E085E6B1
S113123091E00E9417136AE180E00E943A1361E092
S11312408FE691E00E9417130E944D13809154027F
S1131250882309F063C080918702813009F05EC061
S11312600E94E41160E080E00E943A1361E08AE7A2
S113127091E00E94171368E080E00E943A1361E055
S113128088E891E00E94171361E180E00E943A131C
S113129061E085E592E00E94171361E18EE10E940E
S11312A03A1361E083E991E00E94171369E180E059
S11312B00E943A1361E087E692E00E94171369E105
S11312C08EE10E943A1361E08DE991E00E941713C8
S11312D061E280E00E943A1361E08EE692E00E94AF
S11312E0171361E28EE10E943A1361E084EA91E00F
S11312F00E94171368E280E00E943A1361E081E7DC
S113130092E00E94171368E28EE10E943A1361E0B2
S113131084EA91E00E9417130E944D1380915402B5
S1131320823009F063C080918702813009F05EC089
S11313300E94E41160E080E00E943A1361E08AE7D1
S113134091E00E94171368E080E00E943A1361E084
S113135088E891E00E94171361E180E00E943A134B
S113136061E085E592E00E94171361E18EE10E943D
S11313703A1361E08CEA91E00E94171369E180E07E
S11313800E943A1361E087E692E00E94171369E134
S11313908EE10E943A1361E086EB91E00E941713FC
S11313A061E280E00E943A1361E08EE692E00E94DE
S11313B0171361E28EE10E943A1361E084EA91E03E
S11313C00E94171368E280E00E943A1361E081E70B
S11313D092E00E94171368E28EE10E943A1361E0E2
S11313E084EA91E00E9417130E944D1380915402E5
S11313F0833009F063C080918702813009F05EC0B8
S11314000E94E41160E080E00E943A1361E08AE700
S113141091E00E94171368E080E00E943A1361E0B3
S113142088E891E00E94171361E180E00E943A137A
S113143061E085E592E00E94171361E18EE10E946C
S11314403A1361E08CEA91E00E94171369E180E0AD
S11314500E943A1361E087E692E00E94171369E163
S11314608EE10E943A1361E08DE991E00E94171326
S113147061E280E00E943A1361E08EE692E00E940D
S1131480171361E28EE10E943A1361E08DEB91E063
S11314900E94171368E280E00E943A1361E081E73A
S11314A092E00E94171368E28EE10E943A1361E011
S11314B084EA91E00E9417130E944D138091540214
S11314C0843009F063C080918702813009F05EC0E6
S11314D00E94E41160E080E00E943A1361E08AE730
S11314E091E00E94171368E080E00E943A1361E0E3
S11314F088E891E00E94171361E180E00E943A13AA
S113150061E085E592E00E94171361E18EE10E949B
S11315103A1361E08CEA91E00E94171369E180E0DC
S11315200E943A1361E087E692E00E94171369E192
S11315308EE10E943A1361E08DE991E00E94171355
S113154061E280E00E943A1361E08EE692E00E943C
S1131550171361E28EE10E943A1361E084EA91E09C
S11315600E94171368E280E00E943A1361E081E769
S113157092E00E94171368E28EE10E943A1361E040
S11315808DEB91E00E9417130E944D138091540239
S1131590813009F063C080918802813009F05EC017
S11315A00E94E41160E080E00E943A1361E085EC5F
S11315B091E00E94171368E080E00E943A1361E012
S11315C088E891E00E94171361E180E00E943A13D9
S11315D061E085E592E00E94171361E18EE10E94CB
S11315E03A1361E083E991E00E94171369E180E016
S11315F00E943A1361E087E692E00E94171369E1C2
S11316008EE10E943A1361E08DE991E00E94171384
S113161061E280E00E943A1361E08EE692E00E946B
S1131620171361E28EE10E943A1361E084EA91E0CB
S11316300E94171368E280E00E943A1361E08BE68F
S113164092E00E94171368E28EE10E943A1361E06F
S11316508AEC91E00E9417130E944D13809154026A
S1131660823009F063C080918802813009F05EC045
S11316700E94E41160E080E00E943A1361E080ED92
S113168091E00E94171368E080E00E943A1361E041
S113169088E891E00E94171361E180E00E943A1308
S11316A061E085E592E00E94171361E18EE10E94FA
S11316B03A1361E08CEA91E00E94171369E180E03B
S11316C00E943A1361E087E692E00E94171369E1F1
S11316D08EE10E943A1361E086EB91E00E941713B9
S11316E061E280E00E943A1361E08EE692E00E949B
S11316F0171361E28EE10E943A1361E084EA91E0FB
S11317000E94171368E280E00E943A1361E08BE6BE
S113171092E00E94171368E28EE10E943A1361E09E
S11317208AEC91E00E9417130E944D138091540299
S1131730833009F063C080918802813009F05EC073
S11317400E94E41160E080E00E943A1361E080EDC1
S113175091E00E94171368E080E00E943A1361E070
S113176088E891E00E94171361E180E00E943A1337
S113177061E085E592E00E94171361E18EE10E9429
S11317803A1361E08CEA91E00E94171369E180E06A
S11317900E943A1361E087E692E00E94171369E120
S11317A08EE10E943A1361E08DE991E00E941713E3
S11317B061E280E00E943A1361E08EE692E00E94CA
S11317C0171361E28EE10E943A1361E08DEB91E020
S11317D00E94171368E280E00E943A1361E08BE6EE
S11317E092E00E94171368E28EE10E943A1361E0CE
S11317F08AEC91E00E9417130E944D1380915402C9
S1131800843009F063C080918802813009F05EC0A1
S11318100E94E41160E080E00E943A1361E080EDF0
S113182091E00E94171368E080E00E943A1361E09F
S113183088E891E00E94171361E180E00E943A1366
S113184061E085E592E00E94171361E18EE10E9458
S11318503A1361E08CEA91E00E94171369E180E099
S11318600E943A1361E087E692E00E94171369E14F
S11318708EE10E943A1361E08DE991E00E94171312
S113188061E280E00E943A1361E08EE692E00E94F9
S1131890171361E28EE10E943A1361E084EA91E059
S11318A00E94171368E280E00E943A1361E08BE61D
S11318B092E00E94171368E28EE10E943A1361E0FD
S11318C086ED91E00E9417130E944D1380915402FB
S11318D0853009F04CC00E94E41160E080E00E9471
S11318E03A1361E08CED91E00E94171368E080E008
S11318F00E943A1361E083E491E00E94171361E1CE
S113190080E00E943A1361E084E792E00E9417139A
S113191061E18EE10E943A1361E089EE91E00E9458
S113192017136AE180E00E943A1361E087E792E0CE
S11319300E9417136AE18EE10E943A1361E082EF7C
S113194091E00E94171364E280E00E943A1361E080
S11319508AE792E00E94171364E28EE10E943A1330
S113196061E08BEF91E00E9417130E944D13809168
S11319705402863009F04CC00E94E41160E080E01B
S11319800E943A1361E08CED91E00E94171368E025
S113199080E00E943A1361E083E491E00E9417130F
S11319A061E180E00E943A1361E084E792E00E94E2
S11319B0171361E18EE10E943A1361E082E092E044
S11319C00E9417136AE180E00E943A1361E087E7FE
S11319D092E00E9417136AE18EE10E943A1361E0DB
S11319E08BE092E00E94171364E280E00E943A13B5
S11319F061E08AE792E00E94171364E28EE10E949C
S1131A003A1361E08BEF91E00E9417130E944D138B
S1131A1080915402873009F04CC00E94E41160E0C8
S1131A2080E00E943A1361E08CED91E00E9417136C
S1131A3068E080E00E943A1361E083E491E00E9450
S1131A40171361E180E00E943A1361E084E792E0B9
S1131A500E94171361E18EE10E943A1361E082E073
S1131A6092E00E9417136AE180E00E943A1361E059
S1131A7087E792E00E9417136AE18EE10E943A130D
S1131A8061E082EF91E00E94171364E280E00E941B
S1131A903A1361E08AE792E00E94171364E28EE150
S1131AA00E943A1361E084E192E00E9417130E94BD
S1131AB04D1380915402883009F070C00E94E411E3
S1131AC060E080E00E943A1361E08BE192E00E94C2
S1131AD0171368E080E00E943A1361E083E491E028
S1131AE00E94171361E180E00E943A1361E088E5E7
S1131AF092E00E94171361E18CE20E943A1361E0C4
S1131B0089E292E00E9417136AE180E00E943A138E
S1131B1061E08CE592E00E9417136AE18CE20E9476
S1131B203A1361E08DE292E00E94171361E280E0D3
S1131B300E943A1361E080E692E00E94171361E28A
S1131B408FE00E943A1361E083E392E00E9417134E
S1131B5061E284E10E943A1361E084E692E00E942B
S1131B60171361E28CE20E943A1361E085E392E08C
S1131B700E94171368E280E00E943A1361E089E052
S1131B8091E00E94171368E28CE20E943A1361E02C
S1131B9088E392E00E9417130E944D13109253029F
S1131BA000000F90DF91CF91FF90EF90DF90CF90E6
S1131BB00895CF93DF9300D0CDB7DEB79A8389839E
S1131BC085EC90E029813A81232F3327FC0120837F
S1131BD084EC90E02981FC01208381EC90E028E9E9
S1131BE0FC01208382EC90E026E0FC0120830000CD
S1131BF00F900F90DF91CF910895CF93DF93CDB7DE
S1131C00DEB784E290E02FEBFC01208387E290E0D2
S1131C102CEFFC0120838AE290E023EAFC0120837C
S1131C208BE290E02CE5FC01208388E290E0FC014B
S1131C30108285E290E028E7FC01208384E490E0B0
S1131C4022E0FC01208385E490E023E0FC01208372
S1131C5087E490E029EFFC0120838EE690E022E007
S1131C60FC01208389E690E02AE0FC0120838DE3D7
S1131C7090E023E0FC01208388E690E025E0FC016D
S1131C8020838DE690E020E5FC0120838BE690E044
S1131C9020E4FC0120838CE790E021E4FC01208314
S1131CA08AE790E02FEEFC0120838BE790E0FC01B3
S1131CB010828EE790E02CE3FC01208386E890E01C
S1131CC02FE33CE9FC013183208380E890E022EAA1
S1131CD0FC01208381E890E02AE1FC01208388E86C
S1131CE090E020ED37E0FC01318320838AE890E026
S1131CF020ED37E0FC013183208387E690E00E94E9
S1131D00D90D78940E94641080910001853008F404
S1131D1085E080930001809100018F3108F08EE10D
S1131D208093000180911401882309F481E0809359
S1131D30140180911401863008F085E08093140129
S1131D40809186028093860280918602833308F014
S1131D5082E3809386020E9413070E94EA070E948E
S1131D600C0F0E94990FD0CFCF93DF931F92CDB762
S1131D70DEB7898390918F0280911301981780F4C4
S1131D80809111019091120186509F4F90931201FE
S1131D908093110180918F028F5F80938F0213C013
S1131DA080911101909112018A5F9109909312011F
S1131DB0809311018091110190911201803D97400F
S1131DC011F410928F0288E890E020911101309173
S1131DD01201FC013183208300000F90DF91CF9129
S1131DE00895CF93DF931F92CDB7DEB789838AE836
S1131DF090E02981422F50E064E1649F9001659F47
S1131E00300D11242053384FFC013183208300000E
S1131E100F90DF91CF910895CF93DF93CDB7DEB7C5
S1131E2080915402883008F477C080917D029091AB
S1131E307E02A0917F02B091800220E030E04CE06D
S1131E4052E4BC01CD010E94DC1388230CF43EC093
S1131E5080917D0290917E02A0917F02B0918002D8
S1131E6020E030E044E252E4BC01CD010E9434158C
S1131E70181664F19091820280911701981730F13D
S1131E8080911601282F30E040E050E08091440218
S1131E9090914502A0914602B091470282179307A0
S1131EA0A407B50798F080911501282F30E040E091
S1131EB050E08091440290914502A0914602B09175
S1131EC04702281739074A075B0798F48BE290E02A
S1131ED02BE230E0F90120812068FC01208385E2B7
S1131EE090E025E230E0F9012081277FFC01208386
S1131EF01CC08BE290E02BE230E0F90120812F77C7
S1131F00FC01208385E290E025E230E0F9012081A4
S1131F102860FC01208309C085E290E025E230E0DE
S1131F20F90120812860FC0120830000DF91CF911A
S1131F300895CF93DF93CDB7DEB7809187028130C8
S1131F4051F485E290E025E230E0F901208120613E
S1131F50FC01208309C085E290E025E230E0F9012C
S1131F6020812F7EFC01208380918802813051F4EE
S1131F7085E290E025E230E0F90120812062FC0155
S1131F80208309C085E290E025E230E0F901208158
S1131F902F7DFC0120830000DF91CF9108951F93D2
S1131FA0CF93DF9300D0CDB7DEB789836A8388E20D
S1131FB090E028E230E0F90120812D7FFC012083AC
S1131FC08A81882351F088E290E028E230E0F90128
S1131FD020812860FC01208309C088E290E028E287
S1131FE030E0F9012081277FFC01208310E03CC010
S1131FF08981882F90E0212F30E047E050E0BA013A
S1132000621B730B9B0102C0959587952A95E2F795
S113201081709927892B51F088E290E028E230E022
S1132020F90120812061FC01208309C088E290E04D
S113203028E230E0F90120812F7EFC01208388E230
S113204090E028E230E0F90120812062FC01208345
S113205088E290E028E230E0F90120812F7DFC0144
S11320602083812F11E0180F183010F288E290E0DD
S113207028E230E0F90120812260FC012083000085
S11320800F900F90DF91CF911F910895CF93DF931D
S11320901F92CDB7DEB7898360E089810E94CF0F9C
S11320A000000F90DF91CF910895CF93DF931F929B
S11320B0CDB7DEB7898361E089810E94CF0F00002C
S11320C00F90DF91CF9108950F931F93CF93DF93D8
S11320D0CDB7DEB76C970FB6F894DEBF0FBECDBF99
S11320E087E290E027E230E0F90120812260FC01E0
S11320F0208387E290E027E230E0F9012081246028
S1132100FC01208387E290E027E230E0F90120819E
S11321102860FC01208387E290E027E230E0F901A7
S113212020812061FC01208387E290E027E230E0F7
S1132130F90120812062FC01208388E290E028E2FA
S113214030E0F90120812460FC01208388E290E0E2
S113215028E230E0F90120812260FC01208380E044
S113216090E0A0E2B1E489839A83AB83BC8320E04E
S113217030E04AE753E469817A818B819C810E9433
S11321803915DC01CB018B8B9C8BAD8BBE8B20E096
S113219030E040E85FE36B897C898D899E890E94E9
S11321A0DC1388232CF481E090E0988F8F8B3FC060
S11321B020E03FEF4FE757E46B897C898D899E8946
S11321C00E94341518164CF520E030E040E251E44A
S11321D069817A818B819C810E943915DC01CB0154
S11321E0BC01CD010E945314DC01CB01988F8F8B6D
S11321F00FC089E190E09A8F898F898D9A8D01971C
S1132200F1F79A8F898F8F89988D0197988F8F8B8B
S11322108F89988D892B69F714C06B897C898D8986
S11322209E890E945314DC01CB01988F8F8B8F8978
S1132230988D9C8F8B8F8B8D9C8D0197F1F79C8F44
S11322408B8F88E290E028E230E0F90120812B7F37
S1132250FC01208380E090E0ACE8B2E48D839E83AF
S1132260AF83B88720E030E04AE753E46D817E8194
S11322708F8198850E943915DC01CB0189879A8763
S1132280AB87BC8720E030E040E85FE369857A856E
S11322908B859C850E94DC1388232CF481E090E0DC
S11322A09E878D873FC020E03FEF4FE757E4698565
S11322B07A858B859C850E94341518164CF520E090
S11322C030E040E251E46D817E818F8198850E94E7
S11322D03915DC01CB01BC01CD010E945314DC0192
S11322E0CB019E878D870FC089E190E0988B8F8703
S11322F08F8598890197F1F7988B8F878D859E85B7
S113230001979E878D878D859E85892B69F714C0DB
S113231069857A858B859C850E945314DC01CB01E9
S11323209E878D878D859E859A8B898B89899A89CD
S11323300197F1F79A8B898B88E290E028E230E0EC
S1132340F90120812460FC01208388E290E028E2E6
S113235030E0F90120812D7FFC01208381E20E947D
S1132360461083E10E94461086E00E94461082ECEB
S11323700E94461080E20E94461089E00E944610A6
S113238080E80E94461080E40E94461000E010E0BD
S113239005C080E00E9455100F5F1F4F083FF1E019
S11323A01F07B8F388E00E9446108CE00E94461094
S11323B000006C960FB6F894DEBF0FBECDBFDF9160
S11323C0CF911F910F9108950F931F93CF93DF9394
S11323D0CDB7DEB780E80E94461080E40E94461024
S11323E0109288041092890400E010E007C0C8012C
S11323F080579D4FFC0110820F5F1F4F083FF1E093
S11324001F07A8F30000DF91CF911F910F9108954A
S1132410CF93DF9300D000D01F92CDB7DEB78B836C
S11324206C834D838C81869586958695882F90E064
S113243044E5489F9001499F300D11248B81882FDA
S113244090E0820F931F80579D4F9A8389838D81DB
S11324508823C9F089819A81FC018081482F8C816D
S1132460882F90E09C012770332781E090E002C020
S1132470880F991F2A95E2F7842B282F89819A8146
S1132480FC01208319C089819A81FC018081482F35
S11324908C81882F90E09C012770332781E090E0A5
S11324A002C0880F991F2A95E2F780958423282F6C
S11324B089819A81FC01208300000F900F900F9076
S11324C00F900F90DF91CF9108950F931F93CF93A7
S11324D0DF9300D000D01F92CDB7DEB78C836D831D
S11324E010E065C000E04EC08C81882F90E09C0114
S11324F0205231099D81812F692F0E94A615482FF2
S113250050E0C901880F991F880F991F820F931FEC
S1132510840F951F88599F4F9A83898389819A8153
S1132520FC0184918B838B81282F30E09D81802F47
S1132530692F0E94A615882F90E0A90102C0559525
S113254047958A95E2F7CA0181709927892B61F032
S113255080918904982F900F80918804810F41E025
S1132560692F0E9408120BC080918904982F900F44
S113257080918804810F40E0692F0E940812802F07
S113258001E0080F402F50E08D81282F30E0C90171
S1132590880F991F880F991F880F991F821B930B0F
S11325A0481759070CF4A0CF812F11E0180F412FC1
S11325B050E08D81282F30E0C901880F991F880FC2
S11325C0991F820F931F481759070CF48BCF209142
S11325D088049D81892F880F880F890F820F8F5F50
S11325E08093880480918804843570F01092880464
S11325F0209189049D81892F880F880F880F891B5A
S1132600820F8F5F8093890480918904803320F046
S1132610109288041092890400000F900F900F907C
S11326200F900F90DF91CF911F910F910895CF9349
S1132630DF9300D01F92CDB7DEB79A8389836B8373
S11326400CC089819A819C012F5F3F4F3A83298373
S1132650FC0180816B810E94651289819A81FC0151
S11326608081882371F700000F900F900F90DF9105
S1132670CF910895CF93DF9300D0CDB7DEB7898390
S11326806A838981809388048A8180938904000005
S11326900F900F90DF91CF9108950F931F93CF93D5
S11326A0DF93CDB7DEB780E80E94461080E40E9435
S11326B0461000E010E009C0C80180579D4FFC019E
S11326C080810E9455100F5F1F4F083FF1E01F07E4
S11326D098F30000DF91CF911F910F910895505806
S11326E0BB27AA270E9487130C94FA140E94EC14A7
S11326F038F00E94F31420F039F49F3F19F426F4C3
S11327000C94E9140EF4E095E7FB0C94E314E92F20
S11327100E940B1558F3BA176207730784079507CD
S113272020F079F4A6F50C942D150EF4E0950B2EFB
S1132730BA2FA02D0B01B90190010C01CA01A0010F
S11327401124FF27591B99F0593F50F4503E68F16A
S11327501A16F040A22F232F342F4427585FF3CFAB
S1132760469537952795A795F0405395C9F77EF47C
S11327701F16BA0B620B730B840BBAF09150A1F0C5
S1132780FF0FBB1F661F771F881FC2F70EC0BA0F4B
S1132790621F731F841F48F4879577956795B795D3
S11327A0F7959E3F08F0B0CF9395880F08F09927CE
S11327B0EE0F9795879508950E94BF1408F481E061
S11327C008950E94F5130C94FA140E94F31458F01F
S11327D00E94EC1440F029F45F3F29F00C94E314B8
S11327E051110C942E150C94E9140E940B1568F3E6
S11327F09923B1F3552391F3951B550BBB27AA27B6
S113280062177307840738F09F5F5F4F220F331FEF
S1132810441FAA1FA9F335D00E2E3AF0E0E832D0B7
S113282091505040E695001CCAF72BD0FE2F29D0BA
S1132830660F771F881FBB1F261737074807AB078C
S1132840B0E809F0BB0B802DBF01FF2793585F4F01
S11328503AF09E3F510578F00C94E3140C942E1535
S11328605F3FE4F3983ED4F3869577956795B795E3
S1132870F7959F5FC9F7880F911D9695879597F9EE
S11328800895E1E0660F771F881FBB1F6217730767
S11328908407BA0720F0621B730B840BBA0BEE1F7C
S11328A088F7E09508950E94131588F09F5798F0D3
S11328B0B92F9927B751B0F0E1F0660F771F881F41
S11328C0991F1AF0BA95C9F714C0B13091F00E945B
S11328D02D15B1E008950C942D15672F782F8827B6
S11328E0B85F39F0B93FCCF3869577956795B39582
S11328F0D9F73EF490958095709561957F4F8F4FF1
S11329009F4F0895E89409C097FB3EF490958095F5
S1132910709561957F4F8F4F9F4F9923A9F0F92FA1
S113292096E9BB279395F695879577956795B7951F
S1132930F111F8CFFAF4BB0F11F460FF1BC06F5F05
S11329407F4F8F4F9F4F16C0882311F096E911C017
S1132950772321F09EE8872F762F05C0662371F038
S113296096E8862F70E060E02AF09A95660F771F4C
S1132970881FDAF7880F9695879597F90895990F28
S11329800008550FAA0BE0E8FEEF16161706E80735
S1132990F907C0F012161306E407F50798F0621B56
S11329A0730B840B950B39F40A2661F0232B242B2B
S11329B0252B21F408950A2609F4A140A6958FEF4A
S11329C0811D811D089597F99F6780E870E060E09C
S11329D008959FEF80EC089500240A9416161706B4
S11329E018060906089500240A94121613061406FC
S11329F005060895092E0394000C11F4882352F05F
S1132A00BB0F40F4BF2B11F460FF04C06F5F7F4F16
S1132A108F4F9F4F089557FD9058440F551F59F0FD
S1132A205F3F71F04795880F97FB991F61F09F3FB7
S1132A3079F087950895121613061406551FF2CFE0
S1132A404695F1DF08C0161617061806991FF1CF30
S1132A5086957105610508940895E894BB27662757
S1132A607727CB0197F908950E94BF1408F48FEFDC
S1132A7008950E944C150C94FA140E94EC1438F03A
S1132A800E94F31420F0952311F00C94E3140C9499
S1132A90E91411240C942E150E940B1570F3959FC4
S1132AA0C1F3950F50E0551F629FF001729FBB2741
S1132AB0F00DB11D639FAA27F00DB11DAA1F649FDD
S1132AC06627B00DA11D661F829F2227B00DA11D90
S1132AD0621F739FB00DA11D621F839FA00D611D16
S1132AE0221F749F3327A00D611D231F849F600D37
S1132AF0211D822F762F6A2F11249F5750409AF060
S1132B00F1F088234AF0EE0FFF1FBB1F661F771FEB
S1132B10881F91505040A9F79E3F510580F00C94B6
S1132B20E3140C942E155F3FE4F3983ED4F386959A
S1132B3077956795B795F795E7959F5FC1F7FE2B56
S1132B40880F911D9695879597F90895991B79E0BB
S1132B5004C0991F961708F0961B881F7A95C9F729
S1132B6080950895A1E21A2EAA1BBB1BFD010DC07E
S1132B70AA1FBB1FEE1FFF1FA217B307E407F50729
S1132B8020F0A21BB30BE40BF50B661F771F881F05
S1132B90991F1A9469F760957095809590959B019B
S1132BA0AC01BD01CF010895052E97FB1EF40094DE
S1132BB00E94EB1557FD07D00E94B21507FC03D005
S1132BC04EF40C94EB1550954095309521953F4F5C
S1132BD04F4F5F4F089590958095709561957F4F05
S1132BE08F4F9F4F08954532510520F4423010F025
S1132BF00C94FE15FB011082CB010895BB274A30CB
S1132C0031F4992322F4BDE2909581959F4F0C9461
S1132C100A16BB27FB015527AA27880F991FAA1F4D
S1132C20A41710F0A41B83955051B9F7A05DAA33E3
S1132C3008F0A95DA193009779F7B111B1931192AE
S1132C40CB010C942316DC01FC01672F71917723CF
S1132C50E1F7329704C07C916D9370836291AE1753
S10D2C60BF07C8F30895F894FFCFEE
S1132C6A084552524F2120202020202020202020B5
S1132C7A00D00701015A323C010203040506070881
S1132C8A090A2020202020202020303132333435F4
S1132C9A3637383900436F6E663A204D6F646F20B9
S1132CAA562E005F5F5F5F5F5F5F5F5F5F5F5F001E
S1132CBA50435628636F6E66292A00564356286382
S1132CCA6F6E66290050435628636F6E6629005654
S1132CDA435628636F6E66292A005043563A206386
S1132CEA6F6D204D2E412E005F5F5F5F5F5F5F5FF8
S1132CFA5F5F002A207273702F6D696E0020204670
S1132D0A694F32002020636D48324F0020207273CD
S1132D1A702F6D696E002A2046694F32002A20639B
S1132D2A6D48324F005643563A002020566F6C00C5
S1132D3A5643563A20002A20566F6C00436F6E663B
S1132D4A2E20416C65727461002A62706D5F6D6138
S1132D5A78002062706D5F6D696E00202553704F94
S1132D6A32002062706D5F6D6178002A62706D5F57
S1132D7A6D696E002A2553704F320053696E61697A
S1132D8A73205669746169730062706D002553700B
S1112D9A4F32002C00B043006D6D48670000FE
S9030000FC
